:030000000200D823
:0C00D800787FE4F6D8FD75815102011F0D
:1001C900204809F88CF8F3F95BF9B8FA15FA67FAD7
:1001D900B9FB04FB4BFB90FBCFFC10FC44FC79FC06
:1001E900ACFCDCFD09FD34FD5CFD82FDA6FDC8FD0E
:1001F900E8FE06FE22FE3DFE56FE6EFE85FE9AFED6
:0B020900AEFEC1FED3FEE4FEF4FF03D6
:10023B005389F0438901758A18758CFCC28DD28C59
:07024B00D2A9D2AFC2B92213
:0B025200EF1FAC0670011E4C70F6227E
:10016400E4F55175900FE590640F60547FE87E03C9
:10017400120252E590640F604775900FAF90EF2420
:10018400F5601024FE601114601324077012E4F566
:1001940051800D755101800875510280037551031A
:1001A4007590F0AF90EF2430600C24F0600C243094
:1001B400700E7404800674088002740C2551F55185
:0401C400AF517E00B9
:0101C8002214
:03000B00020215D9
:10021500C0E0C0D075D000C000C006E50825E024C8
:1002250009F8E6FE08E6F58AEEF58CB2A5D006D00B
:0602350000D0D0D0E03241
:10000E007D0112023BC2AF120164AB07EBC3940435
:10001E005037BB0308ED640260030D8007BB02047A
:10002E00ED60011DEDF4F5A0ED14600C14600E24CE
:10003E0002700DE4F508800875080C800375081829
:10004E007F207E4E12025280BEEB24FCB40C005078
:10005E006490006D75F003A4C58325F0C58373020B
:10006E00009102009502009902009D0200A102007B
:10007E00A50200A90200AD0200B10200B30200B752
:10008E000200BD7408802A74098026740A802274C6
:10009E000B801E7404801A74058016740680127408
:1000AE0007800E80100508800C0508050880067470
:1000BE00032508F508D2AFD28C120164EB6F7001E4
:0A00CE00EE60F4C28CC2AF02001510
:1000E40002000EE493A3F8E493A34003F68001F224
:1000F40008DFF48029E493A3F85407240CC8C3331D
:10010400C4540F4420C8834004F456800146F6DFEB
:10011400E4800B01020408102040809001C9E47EB1
:10012400019360BCA3FF543F30E509541FFEE493E0
:10013400A360010ECF54C025E060A840B8E493A3A7
:10014400FAE493A3F8E493A3C8C582C8CAC583CAD2
:10015400F0A3C8C582C8CAC583CADFE9DEE780BE8A
:0102140000E9
:00000001FF
